:100000000C9476000C949E000C949E000C949E0020
:100010000C949E000C949E000C949E000C949E00E8
:100020000C949E000C949E000C949E000C949E00D8
:100030000C949E000C949E000C949E000C949E00C8
:100040000C9481200C949E000C944F200C94292039
:100050000C949E000C949E000C949E000C949E00A8
:100060000C949E000C949E00000020410000C842A9
:1000700000401C4620BCBE4CCA1B0E5AAEC59D7427
:10008000CDCCCC3D0AD7233C17B7D13877CC2B3217
:100090009595E6241FB14F0A0000000800020100F8
:1000A0000003040700000000000000000000000042
:1000B000250028002B0000000000240027002A0053
:1000C00004040404040404040202020202020303FE
:1000D0000303030301020408102040800102040806
:1000E0001020010204081020CB20A62611241FBED8
:1000F000CFEFD8E0DEBFCDBF12E0A0E0B1E0EAEE86
:10010000FCE502C005900D92A03DB107D9F723E0B0
:10011000A0EDB2E001C01D92A33FB207E1F710E0ED
:10012000C5E7D0E004C02197FE010E949929C43799
:10013000D107C9F70E9467210C94682E0C94000027
:1001400090E0FC01EC52FF4F249180549F4FFC0142
:100150008491882399F090E0880F991FFC01EA545C
:10016000FF4FA591B491FC01E455FF4F8591949107
:100170008FB7F894EC91E22BEC938FBF08958CBD70
:100180009DBD089520E3FC0120833296862F829541
:100190008F706F706A3030F4605D6293682F8111E8
:1001A000F5CF0895695CF9CFFC01818D928D08959A
:1001B00008950895AF92BF92CF92DF92EF92FF928F
:1001C0000F931F93CF93DF936C017B018B01040F7F
:1001D000151FEB015E01AE18BF08C017D10759F01B
:1001E0006991D601ED91FC910190F081E02DC6015D
:1001F0000995892B79F7C501DF91CF911F910F9157
:10020000FF90EF90DF90CF90BF90AF900895FC01EA
:10021000538D448D252F30E0842F90E0821B930B6B
:10022000541710F0CF96089501970895FC01918D11
:10023000828D981761F0A28DAE0FBF2FB11D5D9614
:100240008C91928D9F5F9F73928F90E008958FEFB6
:100250009FEF0895FC01918D828D981731F0828D6A
:10026000E80FF11D858D90E008958FEF9FEF0895C1
:10027000FC01918D228D892F90E0805C9F4F821B25
:1002800091098F739927089584E093E00E943801C3
:1002900021E0892B09F420E0822F089580E090E08E
:1002A000892B29F00E94440181110C9400000895CB
:1002B000FC01A48DA80FB92FB11DA35ABF4F2C91DB
:1002C000848D90E001968F739927848FA689B789D2
:1002D0002C93A089B1898C91837080648C93938DC9
:1002E000848D981306C00288F389E02D80818F7D6C
:1002F00080830895EF92FF920F931F93CF93DF9324
:10030000EC0181E0888F9B8D8C8D98131AC0E88951
:10031000F989808185FF15C09FB7F894EE89FF8920
:100320006083E889F98980818370806480839FBFBE
:1003300081E090E0DF91CF911F910F91FF90EF90BE
:100340000895F62E0B8D10E00F5F1F4F0F731127CE
:10035000E02E8C8D8E110CC00FB607FCFACFE88909
:10036000F989808185FFF5CFCE010E945801F1CF38
:10037000EB8DEC0FFD2FF11DE35AFF4FF0829FB77D
:10038000F8940B8FEA89FB8980818062CFCFCF936D
:10039000DF93EC01888D8823B9F0AA89BB89E889AD
:1003A000F9898C9185FD03C0808186FD0DC00FB653
:1003B00007FCF7CF8C9185FFF2CF808185FFEDCFD1
:1003C000CE010E945801E9CFDF91CF91089590E0CE
:1003D000FC01E856FF4F2491FC01EC52FF4F349191
:1003E000FC01E054FF4FE491EE23C9F0222339F0E1
:1003F000233001F1A8F4213019F1223029F1F0E085
:10040000EE0FFF1FE455FF4FA591B4918FB7F894FD
:10041000EC91611126C030953E233C938FBF089527
:100420002730A9F02830C9F0243049F780918000A6
:100430008F7D03C0809180008F7780938000DFCF15
:1004400084B58F7784BDDBCF84B58F7DFBCF809162
:10045000B0008F778093B000D2CF8091B0008F7DB5
:10046000F9CF3E2BDACF3FB7F8948091D502909127
:10047000D602A091D702B091D80226B5A89B05C09C
:100480002F3F19F00196A11DB11D3FBFBA2FA92F13
:10049000982F8827BC01CD01620F711D811D911D10
:1004A00042E0660F771F881F991F4A95D1F708957C
:1004B0008F929F92AF92BF92CF92DF92EF92FF9274
:1004C0004B015C010E9433026B017C010E943302EC
:1004D0006C197D098E099F09683E7340810591055D
:1004E000A8F321E0821A9108A108B10888EEC80E8D
:1004F00083E0D81EE11CF11C81149104A104B10415
:1005000029F7FF90EF90DF90CF90BF90AF909F9032
:100510008F9008952FB7F8946091D1027091D20214
:100520008091D3029091D4022FBF0895FC012081C5
:100530002EBD9B012150310941F051810DB407FEC0
:10054000FDCF4EB55EBD4193F5CF61507109860F69
:10055000971F0DB407FEFDCF2EB5FC012083089533
:10056000E091FE02F091FF0280819091FD02892BC3
:1005700080830895E091FE02F091FF0290818091C6
:10058000FD0280958923808308958EBD00000DB4FF
:1005900007FEFDCF8EB50895AF92BF92CF92DF9246
:1005A000EF92FF920F931F93CF93DF93CDB7DEB7F8
:1005B00028970FB6F894DEBF0FBECDBF8C017B012C
:1005C0006A01809101038333E1F45801A40EB51E42
:1005D000A016B10609F46FC00E94BA0280EF0E9413
:1005E000C502812F0E94C502802F0E94C5020F5FA5
:1005F0001F4FF70181917F010E94C5020E94B00246
:10060000E7CF5B01A40EB51E8433C1F40E94BA0289
:1006100019830A838D2D80688B83CC8264E070E01F
:10062000CE0101960E949602AE14BF0409F441C0A7
:10063000F70181917F010E94C502F6CF0E94BA02A4
:100640000F3F110509F028F419820A8384E08B8397
:100650000CC017FD17C019820A8333E01695079561
:100660003A95E1F7007E0C600B8386E0C816D10452
:10067000A0F5F701DE011496EA15FB0599F08191CA
:100680008D93FACFC80126E0969587952A95E1F7D4
:10069000807E19830A830115104C10F48461D7CF32
:1006A0008C61D5CFB6016D5F7F4FCE0101960E9460
:1006B00096020E94B002C60128960FB6F894DEBFDB
:1006C0000FBECDBFDF91CF911F910F91FF90EF90A3
:1006D000DF90CF90BF90AF90089563E070E0CE01BF
:1006E00001960E949602F70181917F010E94C50246
:1006F000AE14BF04C1F7DDCFCF93DF931F92CDB708
:10070000DEB7898341E050E0BE016F5F7F4F90E02C
:1007100080E00E94CC020F90DF91CF91089590E08D
:1007200020910103233339F40C96982F990F990FD8
:10073000990F80E008954896F8CFDA01E09102031E
:10074000F0E0FE2FEE27E60FF71F90E0982F8827A6
:10075000A901BD018E0F9F1F0C94CC02CF93DF9394
:1007600000D0CDB7DEB779836A8322E030E0AE01F6
:100770004F5F5F4F60E170E00E949D030F900F900C
:10078000DF91CF910895CF93DF9300D0CDB7DEB73F
:1007900079836A8322E030E0AE014F5F5F4F64E00F
:1007A00070E00E949D030F900F90DF91CF9108950C
:1007B000CF93DF931F92CDB7DEB72091020330E0D5
:1007C000322F2227260F371F90E0982F8827498342
:1007D00041E050E0BE016F5F7F4F820F931F0E9488
:1007E000CC020F90DF91CF910895CF93DF931F92AA
:1007F000CDB7DEB76983DC01ED91FC910280F38116
:10080000E02D41E050E0BE016F5F7F4F09950F90F2
:10081000DF91CF910895CF93DF931F92CDB7DEB7CD
:100820006983DC01ED91FC910280F381E02D41E0D0
:1008300050E0BE016F5F7F4F09950F90DF91CF9120
:100840000895FC019485FB018485981303C081E021
:10085000943008F080E00895CF93DF931F92CDB7D6
:10086000DEB76983DC01ED91FC910280F381E02D1C
:1008700041E050E0BE016F5F7F4F09950F90DF911F
:10088000CF910895FC01768765870895DC01ED918D
:10089000FC91068CF78DE02D099591E0892708954C
:1008A000862F089581E08627089521E0FC01848544
:1008B000843008F020E0822F08950895FF920F936E
:1008C0001F93CF93DF93EB01FC01178A168A2A81CD
:1008D000211109C02B81211106C02C81211103C0D7
:1008E0002D81222301F141155105E9F08A01FC0116
:1008F000F08C80E591E00E94BF00AE014E5F5F4F3B
:1009000024E030E06CE070E08F2D0E949D03B80180
:100910008F2D0E94AE0381E090E0DF91CF911F9177
:100920000F91FF90089580E0F7CFFC0184859585B5
:100930000895FC0184899589089526E831E0FC0139
:1009400031832083FB014089518962897389FC01CD
:1009500042835383648375830895DC01ED91FC9198
:10096000048CF58DE02D0994982F80336CF08A3338
:1009700024F08F3524F08B3724F481E008958134FE
:100980001CF081E09B350CF080E00895FC01868529
:10099000811114C0A185B285838594852FEF3FEF27
:1009A000A817B90730F4CD010196928781872C9161
:1009B00030E037FD20E0258781E086878585089532
:1009C0001F93CF93DF93EC01162F0E94C60481136F
:1009D00006C01E8681E0DF91CF911F91089580E0CF
:1009E000FACF0F931F93CF93DF938C01EB01899183
:1009F000882369F0C8010E94C604882379F0FE01AB
:100A00003197908198130DC0F8011686F0CF90E0D1
:100A100080E0DF91CF911F910F91089582E090E0E7
:100A2000F8CF83E090E0F5CFCF93DF93EC01CE01D8
:100A30000E94C6048B304CF489305CF4882359F052
:100A400081E0888790E080E00BC08D3011F080322B
:100A5000B9F71E86ECCF8885811105C081E090E052
:100A6000DF91CF91089582E090E0FACFFC012481DC
:100A70003581A9014F5F5F4F8681978148175907DC
:100A800048F48281938155834483FC01E20FF31F74
:100A9000608308950190F081E02D81E080870895C2
:100AA0009F92AF92BF92CF92DF92EF92FF920F93FD
:100AB0001F93CF93DF9300D000D01F92CDB7DEB746
:100AC0008C010E94C604D82ED8011E961C92F12CCF
:100AD000E12C60EFC62EC8010E94C604F8011686FC
:100AE000D81609F4B4C0811113C082E090E00F90D1
:100AF0000F900F900F900F90DF91CF911F910F915A
:100B0000FF90EF90DF90CF90BF90AF909F900895AF
:100B10008C3509F09AC0C8010E94C604882329F3C5
:100B2000E8E9F1E0853709F084C0D8011E961C92EF
:100B300054E0952EB12CA12CC8010E94C604882334
:100B4000A1F2813434F48053803130F083E090E0BE
:100B5000CECF8F7D8753F8CF44E0AA0CBB1C4A95BB
:100B6000E1F7A82AF80116869A949110E5CFC501FD
:100B7000985D8115944020F47501F3E0FF22ABCF1E
:100B8000C5019C5D81159440A8F483E0B822B701AB
:100B9000762F6627770F770F6A297B2990E080E010
:100BA0000196603871058105910540F4C8010E94E5
:100BB000360591CFB50190E080E0F3CF1982262F62
:100BC0002F7320682A8326E09695879577956795F9
:100BD0002A95D1F76032710580F4606C6B835E01F9
:100BE000A4E0AA0EB11CD5016E915D01662309F443
:100BF00072CFC8010E943605F6CF262F2F732068CA
:100C00002B8386E0769567958A95E1F760317105CB
:100C100038F4606E6C835E01B5E0AB0EB11CE3CFBF
:100C200060686C83CD825E01E6E0AE0EB11CDBCF66
:100C300032969081992309F489CF8913F9CF818164
:100C4000882309F483CFF8011686682FAFCF01906F
:100C5000F081E02D8085882319F084E090E047CF73
:100C600090E080E044CF4F925F926F927F928F929C
:100C70009F92AF92BF92CF92DF92EF92FF920F932B
:100C80001F93CF93DF93EC018B0188818B32C9F1E5
:100C90008D32C1F52196FF24F394888190ED980F51
:100CA0009A3018F08E3209F04DC160E070E0CB014F
:100CB000FE012191A0ED8A2E820E39E0381520F137
:100CC0006A3949E97407840749E1940738F5AAE0CD
:100CD000B0E09B01AC010E94DC28912CB12CA12C2E
:100CE0002401350140945094609470944616570640
:100CF0006806790698F0680D791D8A1D9B1DEF0125
:100D0000D7CF2196F12CC9CF211108C0FF20F1F1D6
:100D100061307105810550E89507A0F0E12CEAE00B
:100D20008E2E912CA12CB12C61157105F0E88F0746
:100D30009105C0F1A50194010E942629CA01B901BB
:100D4000E394F2CFF801248120782A6024839B0168
:100D5000AC0188279927DC01821B930BA40BB50BF0
:100D600080839183A283B3838F2DDF91CF911F91D5
:100D70000F91FF90EF90DF90CF90BF90AF909F903A
:100D80008F907F906F905F904F900895F80124812D
:100D90002078286024836083718382839383FF2477
:100DA000F394E2CFFE01299130ED320F3A3010F486
:100DB000E394F8CF2E32F1F4EF012196FE01219653
:100DC000208150EDD52ED20E29E02D1598F06C3CE7
:100DD0003CEC73073CE08307910580F7AAE0B0E0A4
:100DE0009B01AC010E94DC286D0D711D811D911DC0
:100DF000EA94E4CF20812F7DD0E0C0E0253409F0D3
:100E00005DC021812D32D9F53296CC24C394DF0107
:100E1000D0E0C0E02E2D0E2C000C330B4AE0B42E97
:100E2000FD01DD9040ED4D0D4A3008F042C0BC9E02
:100E3000A001BD9E500D1124CD2DDD0CDD0BE097E2
:100E4000C40FD51FAE01420F531F4732510544F363
:100E5000F8018481CC20D1F040E050E060E070E8FF
:100E6000F11003C040E050E0BA0180788C60F801D6
:100E700084834083518362837383FC2C75CF2B3230
:100E800019F03196C12CC3CF3296FCCF40E050E030
:100E900060E87FEFF11004C040E050E060E87FE7D9
:100EA00080788C60F80184834083518362837383EC
:100EB00076CFCC2019F0D195C195D109208121118F
:100EC00041C0CE0DD11DE7FCDA950E9488271C1683
:100ED0001D0604F5E12CC0FF0CC024E0E29EF001E9
:100EE0001124E859FF4F25913591459154910E9465
:100EF000E927D595C795E394209769F7F1109058A5
:100F0000F801248120782C6024836083718382839C
:100F1000938345CFD195C195D109E12C209771F3E9
:100F2000C0FF0CC044E0E49EF0011124E058FF4FE4
:100F300025913591459154910E94E927D595C79502
:100F4000E394ECCFF12C10CFCF92DF92EF92FF928F
:100F5000CF93DF9300D000D01F92CDB7DEB7FC0156
:100F600084818F778630B9F028F4843088F590E05A
:100F700080E013C08A30E9F08C30B9F18830B9F7DD
:100F800080819181A281B381811520E89207A1051A
:100F9000B10568F702C0808190E00F900F900F902C
:100FA0000F900F90DF91CF91FF90EF90DF90CF9057
:100FB000089580819181A281B381AC01BD01505817
:100FC0006F4F7F4F411551056140710580F6E5CFA8
:100FD000808191811D82BE016F5F7F4F0E94330629
:100FE000CE0101960E94A407D8CFC080D180E280B4
:100FF000F38020E030E040E057ECC701B6010E94EA
:101000008D2987FDB4CF20E03EEF4FEF56E4C701B6
:10101000B6010E94832718160CF4A9CFC701B601A8
:101020000E945729CB01B9CFCF93DF93DC01EB01AD
:10103000EC81FD818A819B810896E817F90740F4CD
:1010400081E08887F0E0E0E0CF01DF91CF91089563
:101050003897FD83EC833097B9F31296CD91DC91EC
:101060001397209791F0CF018C1B9D0B23E0959552
:1010700087952A95E1F78D831396FC93EE9312974B
:101080001582148217821682DFCF1196FC93EE939D
:10109000F3CFEF92FF920F931F93CF93DF937C01D7
:1010A000DC0112962D913C911397ED91FC91AB01CF
:1010B000420F531FEF01C60FD71FC217D307A0F46B
:1010C000888181110BC0E901CF014C175D0751F0F8
:1010D0000991DC011D91CD010117B9F381918111B5
:1010E000FDCFE8CF309751F4620F731FCB0101960B
:1010F000F70193838283DB011C92F901CF01DF9119
:10110000CF911F910F91FF90EF90089590E080E0B4
:101110000895CF93DF93EC0188819981009711F0B6
:101120000E943B2A198218821D821C821B821A820D
:10113000DF91CF910895FC0180819181009711F09A
:101140000C943B2A0895FB0101900020E9F73197A8
:10115000AF01461B570BDC01ED91FC910280F3813E
:10116000E02D0994CF93DF93FC0144815581608188
:10117000718184E093E00E94DA00EC0169EA71E099
:1011800084E093E00E94A3088C0F9D1FDF91CF9114
:1011900008958F929F92AF92BF92EF92FF920F931A
:1011A0001F93CF93DF93CDB7DEB7A1970FB6F89417
:1011B000DEBF0FBECDBF7C01FA01CB0119A22230E8
:1011C00008F42AE08E010F5D1F4F822E912CB12C66
:1011D000A12CBF01A50194010E942629F901CA0191
:1011E0006A300CF5605DD8016E938D01232B242BA2
:1011F000252B79F790E080E0109721F0BD01C70121
:101200000E94A308A1960FB6F894DEBF0FBECDBF13
:10121000DF91CF911F910F91FF90EF90BF90AF9012
:101220009F908F900895695CDECF8F929F92AF92CE
:10123000BF92CF92DF92EF92FF920F931F93CF93C3
:10124000DF937C01EB016C0182E0C80ED11C4701E9
:10125000E5E08E0E911C10E000E0F60141916F0177
:1012600050E070E060E02AE0CE010E94C9085C0115
:10127000E881F9810190F081E02D6EE2CE010995BF
:101280008A0D9B1D080F191FC814D90431F7F701E7
:10129000458150E070E060E02AE0CE010E94C9087C
:1012A000800F911FDF91CF911F910F91FF90EF90D1
:1012B000DF90CF90BF90AF909F908F9008950F9345
:1012C0001F93CF93DF93EC010E94A3088C0169EA7E
:1012D00071E0CE010E94A308800F911FDF91CF9192
:1012E0001F910F910895CF93DF9361157105A1F1BF
:1012F000DC018D919C91009789F1EC01EE81FF81D9
:10130000DB010D900020E9F71197A61BB70B30E029
:1013100020E0309749F0EF0109900020E9F79E01A5
:10132000215031092E1B3F0B2A173B0751F4DB01DB
:10133000260F371F2A173B0789F05D9141915417FB
:10134000C9F3FC012581222339F0F8E02F02900136
:101350001124820F931FCFCF90E080E0DF91CF91D7
:1013600008959F92AF92BF92CF92DF92EF92FF9239
:101370000F931F93CF93DF93EC017B01D42E0E9438
:1013800014058C01892B09F052C0CE010E94C604BD
:10139000863609F455C194F5873229F08B35D1F1A1
:1013A000823209F056C1E881F981828193819B8361
:1013B0008A838481958122813381821B930B9F8351
:1013C0008E831D821C82892B11F481E08087CE01DF
:1013D0000E9450058C01892B51F5AC80BD80B50170
:1013E000888199810E944908F7012481207825602D
:1013F000248391838083B382A28219C0843709F445
:1014000008C18B3709F453C08E3609F022C167EB4F
:1014100071E008C1F701848180788064848311823F
:10142000108213821282D1100FC005E010E0C801B3
:10143000DF91CF911F910F91FF90EF90DF90CF90B0
:10144000BF90AF909F9008951E86CE010E94140514
:10145000009709F02DC16DE5CE010E94E0048111D5
:10146000E6CFDA946F857889C7010E941408009747
:1014700009F46EC04D2DBC01CE010E94B109009748
:1014800009F016C1CE010E941405009709F010C1A1
:101490006DE5CE010E94E0048111C9CF6CE2CE015E
:1014A0000E94E0048111DECF03E010E0C0CFF7011D
:1014B00084818078806284831182108213821282F8
:1014C000DD2009F4B2CF1E86CE010E9414050097DC
:1014D00009F0EEC06DE7CE010E94E0048111A7CFB4
:1014E000BB24B394DA94E881F981828193819B8350
:1014F0008A838481958122813381821B930B9F8310
:101500008E831D821C82892B09F4B086CE010E9435
:10151000C604873201F18232F1F0CE010E94C60486
:10152000182F0E94B404882309F4BECF1E86612FB1
:10153000CE010E943605CE010E94C604182F0E94DB
:10154000B4048111F3CFE881F9818085882351F0BB
:1015500004E010E06CCFCE010E9450058C01892B75
:1015600009F065CFCE010E9414058C01892B09F08A
:101570005ECF6AE3CE010E94E004882309F494CF91
:10158000EA81FB818C819D81E80FF91F10820C811B
:101590001D816A817B81C7010E947309BC01892B6F
:1015A000A1F4B801888199810E9449088C016F8556
:1015B0007889C7010E941408FC01892B49F28481B3
:1015C0008068848317830683BF014D2DCE010E945E
:1015D000B1098C01892B09F02ACFCE010E94140594
:1015E0008C01892B09F023CF6DE7CE010E94E00426
:1015F00081111DCF6CE2CE010E94E004882309F422
:1016000053CFCE010E9414058C01892B09F46BCFB6
:101610000ECFF701848180788660848381E08083A7
:101620006CEA71E0CE01DF91CF911F910F91FF9095
:10163000EF90DF90CF90BF90AF909F900C94F1040B
:10164000F7018481807886608483108261EB71E089
:10165000E9CFCE010E94C6045E01F1E1AF0EB11CDC
:10166000D12C9A2CCB2C803374F08A3374F49FE302
:10167000D91699F01E86D394F50181935F01CE01AE
:101680000E94C604F0CF8B3291F393ED980F923005
:1016900070F3982F9F7D953451F3CD0DD11D198A8C
:1016A000B701892D9C2D0E9433068111C0CEFCCE3E
:1016B0008C01BDCEFC01248125FF04C0009711F0F0
:1016C0000C94730990E080E00895CF93DF93DC01E0
:1016D00014962D913C911597232B79F0FB01CD9118
:1016E000DC9160817181CE010E94AD2B009729F0C1
:1016F0008C1B9D0BDF91CF9108958FEF9FEFFACF59
:10170000AF92BF92CF92DF92EF92FF920F931F930F
:10171000CF93DF9300D000D0CDB7DEB78C016B0143
:101720007A01809101038333E9F45B016801C40EFF
:10173000D51EC016D106A9F10E94BA028FE00E9400
:10174000C502812F0E94C502802F0E94C5020F5F33
:101750001F4F80E00E94C502F50181935F010E9446
:10176000B002E7CF843369F50E94BA0219830A8375
:101770008F2D8F778B83EC8264E070E0CE01019631
:101780000E949602A70170E060E0C6010E949F2BB4
:10179000E114F10421F0B701C6010E9496020E94F3
:1017A000B002C7010F900F900F900F90DF91CF9173
:1017B0001F910F91FF90EF90DF90CF90BF90AF906F
:1017C00008950E94BA020F3F110509F030F4198202
:1017D0000A831B8263E070E0D1CF17FD0BC0198232
:1017E0000A8333E0169507953A95E1F7007E086085
:1017F0000B83F0CFC80126E0969587952A95E1F7EF
:10180000807E19830A830115104C18F480618B8344
:10181000E1CF8861FCCFCF93DF931F92CDB7DEB7C6
:101820002091020330E0322F2227260F371F90E04D
:10183000982F882741E050E0BE016F5F7F4F820FF5
:10184000931F0E94800B89810F90DF91CF910895A3
:10185000CF93C82F462F61E070E00E94D80361E06B
:1018600070E08C2F0E940B0C8111F9CFCF9108955D
:10187000CF93C82F80E591E00E94BF0068E070E040
:101880008C2FCF910C94280CCF93C82F80E591E03A
:101890000E94BF0060E170E08C2FCF910C94280C67
:1018A000CF93DF93EC01888D843020F40E94440CA8
:1018B00084E0888FDF91CF91089563E070E00C940D
:1018C0000B0CCF93C82F80E591E00E94BF008C2FB6
:1018D000CF910C945D0CEF92FF920F931F93CF93D7
:1018E0007C0105EF12E0C0E0F801219131918F01F8
:1018F000F701848195812817390729F0CF5FC4301B
:1019000099F780E006C08C2F0E94610C8431B1F7FA
:1019100081E0CF911F910F91FF90EF900895CF93A9
:10192000DF93EC018C858430D0F40E94610C84310B
:1019300089F0882379F0883169F021E08C3159F4FD
:10194000E881F9810084F185E02DCE01099521E03F
:10195000892B09F420E0822FDF91CF91089580E058
:10196000FBCFCF92DF92EF92FF92CF93DF93EC0108
:101970008C85843068F40E94380C0E948A026B01C6
:101980007C018C850E94610C811109C084E08C87E8
:10199000DF91CF91FF90EF90DF90CF90089561E0BD
:1019A00070E080E090E00E9458020E948A02AB0141
:1019B000BC014C195D096E097F098D859E85B0E0DB
:1019C000A0E0481759076A077B07D8F28C850E9468
:1019D000440CDCCFCF93FC01C08D80E591E00E94E8
:1019E000BF0060E270E08C2F0E94280C62E070E083
:1019F0008C2F0E940B0C84FD16C062E070E08C2FCF
:101A00000E940B0C83FF0AC048E162E070E08C2F5B
:101A10000E94D80380E090E0CF91089580E591E0A6
:101A20000E94BF00E3CF40E162E070E08C2F0E9493
:101A3000D80381E0F0CFCF93DF931F92CDB7DEB70D
:101A400041E050E0BE016F5F7F4F90E080E00E9478
:101A5000800B89810F90DF91CF910895CF93DF9311
:101A6000C4E1D0E00E941B0D882361F061E070E0CA
:101A700080E090E00E9458022197A1F780E0DF917A
:101A8000CF91089581E0FBCFCF92DF92EF92FF924A
:101A90000F931F93CF93DF93CDB7DEB7C454D10913
:101AA0000FB6F894DEBF0FBECDBFFC0182819381DB
:101AB000A481B58123968CAF9DAFAEAFBFAF239706
:101AC00021E023962FAF239723964CAD5DAD6EADED
:101AD0007FAD23974BAB5CAB6DAB7EAB89AF9AAF61
:101AE000ABAFBCAF8DA79EA7AFA7B8AB28AB4DA53A
:101AF0005EA56FA578A94FA358A769A77AA72EABB3
:101B00004BA95CA96DA97EA949A35AA36BA37CA389
:101B10008B8F9C8FAD8FBE8F46E851E05C8B4B8BDB
:101B20003FEF3D8B3E8B3F8B188E5E874D872AA7FC
:101B3000CFA0D8A4E9A4FAA4CF86D88AE98AFA8AE1
:101B40002CA309A11AA12BA13CA109871A872B87D5
:101B50003C875A8349838B839C83AD83BE8380916A
:101B600003038111ABC060E372E080E090E00E946B
:101B70005802DFB6F8940AEC10E03EEDE32E30E0B8
:101B8000F32E80910003811122C0F8018491F701A6
:101B90009491E82FF0E0EE0FFF1FEA54FF4FA5915C
:101BA000B4918C91982321F461E08AE00E94E701CE
:101BB0008AE00E94A0008CB580618CBD8CB58064E9
:101BC0008CBD8DE00E94A0008BE00E94A00080915F
:101BD00000038F5F80930003DFBEF8010491E02FC4
:101BE000F0E0EE0FFF1FE455FF4F85919491909325
:101BF000FF028093FE02F701E490E092FD028AE08A
:101C00000E94A0000E94B00280E591E00E94BF0007
:101C100084E38093010380E80E947C030E942E0DE0
:101C2000882309F481C088E00E947C030E941B0D78
:101C3000883009F079C080E10E947C030E941B0D6E
:101C4000803109F071C080E00E947C030E941B0D6E
:101C5000182F811169C041E050E0BE016D5B7F4FDC
:101C60008FE190E00E94800B24968FAD2497833003
:101C700009F05AC080E48093020342E06EE170E014
:101C8000812F0E94D80342E06FE170E0812F0E9413
:101C9000D8031F5F143089F740E06EE170E0812FB8
:101CA0000E94D80340E06FE170E0812F0E94D803CA
:101CB0001F5F183089F781E08093030380E591E08E
:101CC0000E94BF0046E050E06AE671E089E090E0E3
:101CD0000E94CC0244E050E0BE016D5F7F4F8FE078
:101CE00090E00E94CC0244E050E0BE01615F7F4F73
:101CF00081E090E00E94CC0244E050E0BE016B5EC7
:101D00007F4F85E090E00E94CC0281E08C8789853E
:101D10009A85AB85BC858093C1039093C203A09341
:101D2000C303B093C4036FC087E38093010380E8CB
:101D30000E947C030E942E0D882339F188E00E94C6
:101D40007C030E941B0D883001F580E10E947C031A
:101D50000E941B0D182F8031C1F480E00E947C038B
:101D60000E941B0D811111C041E050E0BE016D5B6E
:101D70007F4F89E390E00E94800B24968FAD2497DB
:101D8000843019F41093020396CF83E38093010308
:101D900080E80E947C030E942E0D882391F180E14F
:101DA0000E947C030E941B0D803159F582E10E9444
:101DB0007C030E941B0D823121F580E00E947C0390
:101DC0000E941B0D81111DC084E08093020315E564
:101DD00025961FAF259741E050E0BE016C5B7F4F19
:101DE0008BE190E00E94CC0224961FAF249741E043
:101DF00050E0BE016D5B7F4F8AE190E00E94CC0213
:101E00005ACF10920103CC5BDF4F0FB6F894DEBFC0
:101E10000FBECDBFDF91CF911F910F91FF90EF903B
:101E2000DF90CF9008951F93CF93DF931F92CDB78C
:101E3000DEB7182F80E591E00E94BF00812F0E943D
:101E40008F0327E0129FF0011124E752FD4F2281FA
:101E50003381377041E050E0BE016F5F7F4F820FEA
:101E6000931F0E94800B89810F90DF91CF911F916A
:101E70000895FC01808D843040F4218D328D232B18
:101E800021F00E94130F90E008958FEF9FEF0895C7
:101E9000CF93DF93FC012485243028F08FEF9FEF50
:101EA000DF91CF910895EC010190F081E02D008445
:101EB000F185E02D0995892B89F38C850E94130FFC
:101EC00090E0EECFDA01E0910203F0E0FE2FEE2782
:101ED000E60FF71F90E0982F8827A901BD018E0F0C
:101EE0009F1F0C94800B8F929F92AF92BF92CF92C4
:101EF000DF92EF92FF921F93CF93DF93CDB7DEB7C0
:101F00002C970FB6F894DEBF0FBECDBF2091010312
:101F100014E0222329F16B017C0180E591E00E940D
:101F2000BF005E0127E0A20EB11C450110E0812F29
:101F30000E945D0CF40181934F01882349F11F5FDA
:101F40001430A9F710E0F50181915F018D31D9F0CE
:101F50008831C9F08A518230B0F01F5F143099F790
:101F6000812F2C960FB6F894DEBF0FBECDBFDF9148
:101F7000CF911F91FF90EF90DF90CF90BF90AF90E7
:101F80009F908F90089560E170E0812F0E94280C4F
:101F9000A12EB12CF501EE0FFF1FEB50FD4F11826A
:101FA000108283EE93E00197F1F742E870E060E081
:101FB000812F0E94D8034FEF62E070E0812F0E94D2
:101FC000D803B601C114D10491F48091000190911D
:101FD000010101968115F0EC9F0708F45CC0909315
:101FE0000101809300016091000170910101812F36
:101FF0000E94C30386E0ECE0F1E0DE01119601905F
:102000000D928A95E1F7F70183818F778C83848124
:102010008D8385818E83A7014E5F5F4F24E030E082
:102020006CE070E0812F0E949D03B601812F0E9419
:10203000AE0326E030E0AE014F5F5F4F66E070E038
:10204000812F0E949D0361E070E0812F0E94280C87
:1020500027E02A9DC0012B9D900D11249C01275241
:102060003D4F7901F9011182108222E030E0AE018A
:10207000455F5F4F68E270E0812F0E94620F8B85A1
:102080009C85982789279827F70193838283168256
:102090001582148265CF80E090ECA1CFCF92DF92C1
:1020A000EF92FF920F931F93CF93DF9300D000D056
:1020B00000D0CDB7DEB78C016B017A01FC01808DB9
:1020C000843010F40E94440C86E891E09A8389835E
:1020D000F60182819381A481B5818B839C83AD833A
:1020E000BE83B701CE0101960E94730FF801808F65
:1020F0008430A0F4F586E486128E118E81E0269657
:102100000FB6F894DEBF0FBECDBFDF91CF911F9108
:102110000F91FF90EF90DF90CF90089580E0EFCF88
:10212000AF92BF92CF92DF92EF92FF920F931F93E5
:10213000CF93DF9300D000D000D0CDB7DEB7082F0B
:102140006B0180E591E00E94BF009E012F5F3F4F31
:102150007901590110E0812F0E945D0CF5018193F6
:102160005F01882341F11F5F1430A9F710E0F701E8
:1021700081917F018D31D1F08831C1F08A51823057
:10218000A8F01F5F143099F7812F26960FB6F894A8
:10219000DEBF0FBECDBFDF91CF911F910F91FF909A
:1021A000EF90DF90CF90BF90AF90089560E170E026
:1021B000812F0E94280CE12EF12CF701EE0FFF1F5A
:1021C000EB50FD4F1182108283EE93E00197F1F7FF
:1021D000402F70E060E0812F0E94D8034FEF62E053
:1021E00070E0812F0E94D803B601CD2889F4809138
:1021F00000019091010101968115F0EC9F0798F183
:1022000090930101809300016091000170910101A0
:10221000812F0E94C30361E070E0812F0E94280C8F
:1022200027E02E9DC0012F9D900D11249C01275267
:102230003D4F7901F9011182108222E030E0AE01B8
:102240004B5F5F4F68E270E0812F0E94620F8D81CB
:102250009E81982789279827F70193838283168286
:102260001582148291CF80E090ECCACFCF92DF929A
:10227000EF92FF921F93CF93DF93EC017B016A01F2
:102280008C85843048F40E94610C882319F08C8579
:102290000E94380C84E08C87F70182819381A481AD
:1022A000B5810097A105B10551F490E080E0DF9180
:1022B000CF911F91FF90EF90DF90CF9008958F3FC7
:1022C0009F4FAF4FBF4F89F380910103811103C02E
:1022D00084E08C87EACF70E060E081E20E94901099
:1022E000182F8C87843008F780E591E00E94BF00AA
:1022F000A7014E5F5F4F24E030E06CE070E0812F7B
:102300000E949D03B601812F0E94AE0364E070E03D
:10231000812F0E94280C0E948A026B017C018C850F
:102320000E94610C873109F18C31F9F0882309F49E
:10233000BCCF0E948A02AB01BC014C195D096E0939
:102340007F098D859E85B0E0A0E084179507A607DC
:10235000B70738F061E070E080E090E00E9458023A
:10236000DECF8C850E94440CB3CF81E090E09FCFFC
:102370000F931F93CF93DF93EC018B01888D8430F3
:1023800010F40E94440C80910103811107C094E075
:10239000988FDF91CF911F910F910895B80182E03E
:1023A0000E949010888F843030F41D870C871A8E1D
:1023B000198E81E0EECF80E0ECCF0F931F93CF9387
:1023C00020910103222349F18C01FC016481758174
:1023D00081E20E949010C82F8430F8F480E591E0EB
:1023E0000E94BF008C2F0E945D0C833131F08C2F36
:1023F000CF911F910F910C94380C62E070E08C2FFC
:102400000E94280CF80184819581EC2FF0E0EE0FFA
:10241000FF1FEB50FD4F91838083CF911F910F9150
:1024200008957F928F929F92AF92BF92CF92DF9248
:10243000EF92FF920F931F93CF93DF9300D0CDB70E
:10244000DEB7782E8B014A01590122E030E0AE015F
:102450004F5F5F4F64E270E00E94620FE980FA8094
:10246000FE24EF24FE24E00EF11E97013770409108
:102470000103072D10E0433309F042C0085F1F4FEE
:10248000102F0027110F110F110FC901800F911F7D
:102490004733C9F1A9014A0D5B1D4130584098F1FD
:1024A00060E078E06B01C21AD30AA601B4010E9471
:1024B000CC02A5014C195D09B4016C0D7D1DC8014C
:1024C0000E94CC02EA0CFB1CF982EA8222E030E096
:1024D000AE014F5F5F4F64E270E0872D0E949D0365
:1024E0000F900F90DF91CF911F910F91FF90EF9080
:1024F000DF90CF90BF90AF909F908F907F90089586
:10250000005F1F4FBDCFA501B401DACFEF92FF925C
:102510001F93CF93DF9300D0CDB7DEB7182F22E003
:1025200030E0AE014F5F5F4F60E270E00E94620FEB
:10253000E980FA80FE24EF24FE2422E030E0AE01A0
:102540004F5F5F4F60E270E0812F0E94620F8981D0
:102550009A81982789279827E816F90689F487E051
:10256000189FF0011124E752FD4FF582E482C70164
:102570000F900F90DF91CF911F91FF90EF900895F2
:102580007C01DBCF1F93CF93DF93182F80E591E081
:102590000E94BF00812F0E948612EC01812F0E94B1
:1025A0005D0C873121F08C3111F0D0E0C0E0CE011C
:1025B000DF91CF911F910895CF93DF93EC018C852C
:1025C000843060F40E94610C873111F08C3131F459
:1025D0008C850E94C2128115984088F3DF91CF91BB
:1025E0000895FC018485843010F40C94C21290E0AC
:1025F00080E00895CF92DF92EF92FF921F93CF93E6
:10260000DF93182F7B01EA014130584010F0C0E001
:10261000D8E080E591E00E94BF00812F0E948612E1
:102620006C01812F0E945D0C873111F08C3121F5F6
:10263000CC16DD0670F380E591E00E94BF009E019C
:10264000A70170E060E0812F0E94111260E270E04B
:10265000812F0E94280C62E070E0812F0E940B0CF9
:1026600084FD0DC0812F0E945D0C8823B9F080E5A8
:1026700091E00E94BF00EFCFD0E0C0E0DCCF40E1AE
:1026800062E070E0812F0E94D803CE01DF91CF91EC
:102690001F91FF90EF90DF90CF900895D0E0C0E0C1
:1026A000F4CF0F931F93CF93DF938C01EA01FC01CA
:1026B0008485843048F40E94FA12892B39F481E031
:1026C00090E0F80193838283D0E0C0E0CE01DF91F7
:1026D000CF911F910F9108959F92AF92BF92CF9289
:1026E000DF92EF92FF920F931F93CF93DF938C01B2
:1026F0005B01942EE52EFC01C688D788F08C80E51E
:1027000091E00E94BF008F2D0E948612C92DDE2D00
:102710008C179D0708F4EC019E01A501B6018F2DD1
:102720000E941112F801868997898C0F9D1F978B43
:10273000868BCE01DF91CF911F910F91FF90EF908B
:10274000DF90CF90BF90AF909F900895FF920F932E
:102750001F93CF93DF9300D0CDB7DEB7F82E22E0E2
:1027600030E0AE014F5F5F4F66E270E00E94620FA3
:1027700009811A8110270127102722E030E0AE01DD
:102780004F5F5F4F66E270E08F2D0E94620F89817C
:102790009A819827892798270817190749F4C801AB
:1027A0000F900F90DF91CF911F910F91FF9008959F
:1027B0008C01E3CF1F93CF93DF93182F87E0189FEF
:1027C000E0011124C752DD4F88819981009761F49F
:1027D00080E591E00E94BF00812F0E94A6132E8108
:1027E000821B910999838883DF91CF911F9108956E
:1027F000AF92BF92CF92DF92EF92FF920F931F930F
:10280000CF93DF93EC017B0180910103811120C004
:102810001B821A8288EE93E0A0E0B0E08C839D8357
:10282000AE83BF8386E191E09983888384E08C87BF
:1028300088EE93E09E878D87CE01DF91CF911F9127
:102840000F91FF90EF90DF90CF90BF90AF900895E1
:1028500085EFC82E82E0D82E10E094E0B92EA12C8E
:10286000D6012D913D916D01F70184819581281745
:10287000390791F4812F0E94610C082F873111F0E4
:102880008C3139F5812F0E94DA13892B59F50C31DF
:1028900019F4812F0E94380C1F5F143009F7A11022
:1028A00008C0D701ED91FC910084F185E02DC701AE
:1028B00009951B821A8288EE93E0A0E0B0E08C8339
:1028C0009D83AE83BF8386E191E099838883BC8634
:1028D000AFCF843149F08111DFCFF60132971182F9
:1028E0001082DACFB12ED8CFAA24A394D5CF8F925D
:1028F0009F92AF92BF92CF92DF92EF92FF921F937F
:10290000CF93DF93CDB7DEB72F970FB6F894DEBF26
:102910000FBECDBF5C014B017A018091010388237A
:10292000A1F1B501CE0101960E94F81385EFC82EE2
:1029300082E0D82E10E0F601219131916F01F5016E
:10294000848195812817390751F4812F0E94610CE9
:10295000873129F4A701B401812F0E94FA121F5F69
:10296000143049F7C7012F960FB6F894DEBF0FBE9B
:10297000CDBFDF91CF911F91FF90EF90DF90CF906F
:10298000BF90AF909F908F900895F12CE12CEACFEB
:10299000FC018485843010F40C94DA1390E080E01C
:1029A00008954F925F927F928F929F92AF92BF92C3
:1029B000CF92DF92EF92FF920F931F93CF93DF930B
:1029C00000D0CDB7DEB7782E6B014A01A82EB12C0E
:1029D00027E0829FC0011124FC01E752FD4F7F01D7
:1029E0000081118180E591E00E94BF000815190562
:1029F00054F4872D0E94A613F70126818C01021B37
:102A00001109118300830115110519F5872D0E9405
:102A10005D0C843159F0882349F001E010E08C31DD
:102A200011F410E000E0119501951109C8010F9013
:102A30000F90DF91CF911F910F91FF90EF90DF905A
:102A4000CF90BF90AF909F908F907F905F904F906E
:102A50000895801691060CF4840187E08A9DF001A8
:102A60008B9DF00D1124E752FD4FE280F380C114DD
:102A7000D10451F12701F7E05F22872D0E948F03D7
:102A8000840D951D20910103273309F453C098014B
:102A9000240D351D2130384008F44CC020E038E0CA
:102AA000490184189508A401B6010E94800B2601F3
:102AB000480C591C6801C818D908872D0E948F033B
:102AC000A601B2010E94800BE00EF11E87E08A9DF4
:102AD000F0018B9DF00D1124E752FD4FF382E2824D
:102AE00020813181201B310B318320838681800F2F
:102AF000912F911D8A3F910510F4232BF1F487E06B
:102B00008A9DF0018B9DF00D1124E752FD4F168236
:102B1000F982EA8222E030E0AE014F5F5F4F68E267
:102B200070E0872D0E949D0360E470E0872D0E9475
:102B3000280C7CCFA801B601C5CF868377CFCF9371
:102B4000DF93FC01218D328D2115310529F48FEFA2
:102B50009FEFDF91CF910895EC01808D42175307CD
:102B600008F0A9010E94D1141816190684F7298DBE
:102B70003A8D281B390B3A8F298FEBCF0F931F9378
:102B8000CF93DF931F92CDB7DEB7FC01218D328D3D
:102B9000232B41F48FEF9FEF0F90DF91CF911F9187
:102BA0000F9108958C0141E050E0BE016F5F7F4FAF
:102BB000FC01808D0E94D114181619065CF7F801EB
:102BC000818D928D0197928F818F898190E0E4CFE2
:102BD000CF93DF931F92CDB7DEB741E050E0BE0147
:102BE0006F5F7F4FFC0184850E94D114181619066F
:102BF00034F4898190E00F90DF91CF9108958FEFA9
:102C00009FEFF9CFFC018485843010F40C94D1142B
:102C100090E080E008950F931F93CF93DF9300D04F
:102C2000CDB7DEB7FC0124852430E0F48C0180E5CB
:102C300091E00E94BF0022E030E0AE014F5F5F4FA5
:102C400060E170E0F80184850E94620F89819A81B9
:102C50009827892798270F900F90DF91CF911F9188
:102C60000F91089590E080E0F6CF0F931F93CF93DC
:102C7000DF9300D0CDB7DEB7FC0124852430E0F42B
:102C80008C0180E591E00E94BF0022E030E0AE01BF
:102C90004F5F5F4F64E070E0F80184850E94620F2F
:102CA00089819A819827892798270F900F90DF9123
:102CB000CF911F910F91089590E080E0F6CF0F9390
:102CC0001F93CF93DF938C01EB01FC0180819181F5
:102CD0000097E1F06881798161157105A9F0428161
:102CE00053812C813D814217530770F00E94A62B1F
:102CF0008C819D81F801958384831D821C82DF91E4
:102D0000CF911F910F9108950E943B2A888199814C
:102D1000F801918380838A819B81938382838C8154
:102D20009D8195838483198218821B821A82E5CF44
:102D30000F931F93CF93DF93EC01888199810097C4
:102D400059F02A813B812617370730F081E0DF9167
:102D5000CF911F910F9108958B016F5F7F4F0E945C
:102D6000C42A009759F0998388831B830A832C8196
:102D70003D81232B59F7FC011082E8CF80E0E7CF9B
:102D8000EF92FF920F931F93CF93DF93611571051D
:102D900041F480E0DF91CF911F910F91FF90EF9070
:102DA000089541155105B1F07B01EC010C811D81A5
:102DB000040F151FB8010E949816882351F328812B
:102DC00039818C819D81B701820F931F0E94A62BB0
:102DD0001D830C8381E0DECFCF93DF93EC01FB01F9
:102DE00001900020E9F73197AF01461B570B0E9475
:102DF000C016811103C0CE010E948908CE01DF9167
:102E0000CF910895CF93DF93EC01FB01448155816D
:102E1000608171810E94C016811103C0CE010E94A1
:102E20008908CE01DF91CF910895EF92FF920F9321
:102E30001F93CF93DF93EC017B018A01BA010E94BB
:102E4000981681110BC0CE010E948908CE01DF9136
:102E5000CF911F910F91FF90EF9008951D830C83E8
:102E6000B701888199810E94A62BF0CFFB010190C8
:102E70000020E9F73197AF01461B570B0C9415174B
:102E80000F931F93CF93DF93CDB7DEB762970FB643
:102E9000F894DEBF0FBECDBF8C01CB01F8011182CB
:102EA000108213821282158214824AE0BE016F5F83
:102EB0007F4F0E944E27BE016F5F7F4FC8010E9467
:102EC000361762960FB6F894DEBF0FBECDBFDF9106
:102ED000CF911F910F910895CF93DF93EC01FB01E8
:102EE0008617970749F0608171816115710541F07E
:102EF000448155810E941517CE01DF91CF9108952D
:102F00000E948908F9CFFC0111821082138212827B
:102F100015821482FB0101900020E9F73197AF017F
:102F2000461B570B0C941517AF92BF92CF92DF92AE
:102F3000EF92FF920F931F93CF93DF936C015B018E
:102F40007A0189012417350720F48F2D7901042F88
:102F5000182F68EA71E0C6010E948317D501149604
:102F6000CD91DC91EC16FD06E0F40C171D0708F47A
:102F7000E801D501ED91FC911197EC0FFD1F108137
:102F800010826D917C916E0D7F1DC60161157105DA
:102F9000A1F00E943617F50180819181C80FD91FD9
:102FA0001883C601DF91CF911F910F91FF90EF9091
:102FB000DF90CF90BF90AF9008950E948908EBCF2B
:102FC000DC0186E891E08D939D9384E0FB01019004
:102FD0000D928A95E1F70895EF92FF920F931F9358
:102FE000CF93DF9300D000D0CDB7DEB78C017B014B
:102FF000FB0184858430A8F086E891E0F801918394
:1030000080831282138214821582C8010F900F9060
:103010000F900F90DF91CF911F910F91FF90EF9044
:10302000089580E591E00E94BF0024E030E0AE0109
:103030004F5F5F4F6CE070E0F70184850E94620F84
:10304000BE016F5F7F4FC8010E94E017DECF0F9374
:103050001F93CF93DF93CDB7DEB728970FB6F894C1
:10306000DEBF0FBECDBF8C01D80159964D915C914A
:103070005A974115510551F0ED91FC91048CF58D55
:10308000E02D70E060E0C8010995EECFF801808D79
:103090000E94DA13892BB1F148E050E0BE016F5F66
:1030A0007F4FD80158968C910E94D114181619069A
:1030B000F4F4D801509684E0FE01319601900D920F
:1030C0008A95E1F78D8190E0982F88272E81820FD5
:1030D000911DF801958B848B8F81282F30E0322F42
:1030E00022278885820F932F911D928F818F28969A
:1030F0000FB6F894DEBF0FBECDBFDF91CF911F9109
:103100000F91089590E080E0F2CF4F925F926F921E
:103110007F928F929F92AF92BF92CF92DF92EF9267
:10312000FF920F931F93CF93DF93CDB7DEB76397D3
:103130000FB6F894DEBF0FBECDBF7C016B013A0124
:10314000FB0120E090E080E06AE03191332309F454
:1031500061C040ED430F4A3008F04DC0689FA001A8
:10316000699F500D1124CA01C097830F911D37FD2F
:103170009A958F3F910549F340F3F70142815381BE
:10318000648175818091CD039091CE03A091CF038E
:10319000B091D003481759076A077B0709F40DC29D
:1031A0008701085F1F4F0E948A026F7077277C5F3C
:1031B000C8010E94B811813009F004C286E891E08C
:1031C0009A838983F70182819381A481B5818B835E
:1031D0009C83AD83BE8345E350E0BE016F5F7F4FAC
:1031E000C8010E945E04892BA9F5D12CC12CC8010D
:1031F0000E94500C17C03E3209F0BFCF233009F4B3
:10320000BCCFD301A20FB11D12968C932F5F90E01B
:1032100080E09BCF233009F0B0CFF3018583CC242D
:10322000C394D12CC60163960FB6F894DEBF0FBECF
:10323000CDBFDF91CF911F910F91FF90EF90DF9065
:10324000CF90BF90AF909F908F907F906F905F9046
:103250004F9008950E948A02F7017783668342E0C7
:1032600050E0B7016A5F7F4FC8010E946C1381E094
:1032700090E09A83898342E050E0BE016F5F7F4F08
:10328000C8010E946C1380E091E09A83898342E038
:1032900050E0BE016F5F7F4FC8010E946C131A821D
:1032A000198242E050E0BE016F5F7F4FC8010E946B
:1032B0006C1342E050E0BE016F5F7F4FC8010E9477
:1032C0006C1342E050E0BE016F5F7F4FC8010E9467
:1032D0006C135601F6018081882301F16501F60126
:1032E00081912F01882311F08E32B1F446018A18A2
:1032F0009B081814190474F48D8641E050E0BE0157
:10330000635F7F4FC8010E946C13A401B501C8011F
:103310000E946C135201DECF6201E1CF1D8641E0B5
:1033200050E0BE01635F7F4FC8010E946C13C12C47
:10333000DD24D394DA82C98242E050E0BE016F5F9F
:103340007F4FC8010E946C13DA82C98242E050E0CC
:10335000BE016F5F7F4FC8010E946C13C8010E94BD
:10336000EA0C892B09F441CFF3E0AF2EB12C2301F5
:1033700022E0420E511CD4C0F70142815381648186
:103380007581808D918DA28DB38D481759076A077D
:103390007B0709F008C1848D958DC59709F003C19D
:1033A00081A192A15DEFC52EDD24DA940C970CF477
:1033B000ADC04CE050E0BE016F5F7F4FC8010E947E
:1033C0009F158B819C819827892798279A8B898BB9
:1033D000F7014681578129813A814217530709F045
:1033E000E7C097FFE5C08F7092703BEFC32EDD24DE
:1033F000DA94892B09F08AC06F8078847624672458
:1034000076242AEFC22EDD24DA946114710409F4C3
:103410007DC0D12CC12C8D819E819827892798272A
:10342000C816D906F8F441E050E0BE01635F7F4F53
:10343000C8010E949F154D85442331F050E070E093
:1034400060E0C8010E949F158D858111ECCF44E09A
:1034500050E070E060E0C8010E949F15FFEFCF1AB6
:10346000DF0AD9CF912C812C41E050E0BE016D5E86
:103470007F4FC8010E949F154B89842F807C09F0E3
:103480006CC0442331F050E070E060E0C8010E945D
:103490009F158B898111E8CF42E050E0BE01615F4A
:1034A0007F4FC8010E949F1542E050E0BE01635F5C
:1034B0007F4FC8010E949F1544E050E070E060E03B
:1034C000C8010E949F1542E050E0BE016F5E7F4F31
:1034D000C8010E949F158F85988949895A8981154D
:1034E000914009F043C0CD84DE84DC24CD24DC246B
:1034F00081E0C816D104D1F54115544009F04AC005
:1035000044E050E0B201C8010E949F1521E0A21AD8
:10351000B10809F46CCEFFEFCF16DF0609F067CED5
:103520000E948A023B014C01C8010E94271818160C
:1035300019060CF421CF0E948A02661977098809BE
:103540009909693873418105910548F562E370E096
:1035500080E090E00E945802E7CF41E050E070E048
:1035600060E0C8010E949F151B8A93CF542745270E
:10357000542770E060E0C8010E949F15FFEF8F1A8A
:103580009F0A6814790409F06FCF96EFC92EDD24E5
:10359000DA94BCCFE7EFCE2EDD24DA94B7CFCC247B
:1035A000CA94DC2CB3CF6EEFC62EDD24DA94AECFF6
:1035B0004CEFC42EDD24DA94A9CF8EEFC82EDD2483
:1035C000DA9430CED12CC12C2DCECF92DF92EF9257
:1035D000FF920F931F93CF93DF93CDB7DEB7AF97D3
:1035E0000FB6F894DEBF0FBECDBF7C016A0106E8BE
:1035F00011E01A8309831C861B8688EE93E0A0E005
:10360000B0E08D879E87AF87B88B84E491E09A877E
:103610008987188F0F8B198E1A8E1B8E1C8E84E053
:1036200089A31BA70AA71CA61DA61EA61FA68091DC
:10363000C1039091C203A091C303B091C4038EA3B0
:103640009FA3A8A7B9A78B839C83AD83BE8318864D
:103650001F82AE01465D5F4FCE0101960E94851824
:1036600081309105B1F4D701ED91FC910488F58981
:10367000E02D1DA30CA38CA59DA5AEA5BFA58EA373
:103680009FA3A8A7B9A7A601BE016C5D7F4FC70184
:103690000995AF960FB6F894DEBF0FBECDBFDF9190
:1036A000CF911F910F91FF90EF90DF90CF900895F1
:1036B000CF92DF92EF92FF920F931F93CF93DF93FE
:1036C000CDB7DEB7AF970FB6F894DEBF0FBECDBF54
:1036D0008C016B017A0186E891E09A8389831B82D1
:1036E0001C821D821E821C861B8648EE53E060E011
:1036F00070E04D875E876F87788B24E431E03A87EE
:103700002987988F8F8B198E1A8E1B8E1C8E24E022
:1037100029A39BA78AA71CA61DA61EA61FA6D80183
:103720001C968C91843060F40E94610C882321F0F7
:10373000F80184850E94380C84E0D8011C968C9393
:103740008091C1039091C203A091C303B091C403BF
:103750008EA39FA3A8A7B9A78B839C83AD83BE83A9
:1037600018861F82AE01465D5F4FB601CE010196FD
:103770000E9485180097C1F0D801ED91FC91068454
:10378000F785E02D86E891E09DA38CA38CA59DA5EF
:10379000AEA5BFA58EA39FA3A8A7B9A7A701BE01E9
:1037A0006C5D7F4FC8010995AF960FB6F894DEBFE8
:1037B0000FBECDBFDF91CF911F910F91FF90EF9082
:1037C000DF90CF9008957F928F929F92AF92BF9299
:1037D000CF92DF92EF92FF920F931F93CF93DF93DD
:1037E000CDB7DEB7A6970FB6F894DEBF0FBECDBF3C
:1037F0008C01762E942E852E20E2A22ECE010196EB
:103800007C01DC01EA2D1D92EA95E9F76801F3E4F9
:10381000CF0ED11C86E891E09AA389A38FEF8BA3EA
:103820008CA38DA38EA343E450E0BE016F5D7F4F58
:10383000C6010E945E04019609F4BFC081E089833D
:103840008A8386E0B82EBB821C82D80114966D91C3
:103850007D918D919C9117970E9492296D837E8313
:103860008F83988789869A8680E890E09C878B87EB
:103870004CE150E0B701C6010E946C13FE0137967F
:103880008AE1DF011D928A95E9F74801B8E08B0EC5
:10389000911CF401D70101900D92BA94E1F740E137
:1038A00050E0B701C6010E946C13F7011192AA946F
:1038B000E9F796E0A92EB12C40E250E0B701C6012D
:1038C0000E946C13F1E0AF1AB108B1F783E6898367
:1038D00092E89A8393E59B838C8385E38D8381E0D3
:1038E0008E837F829DE3988797E099878A8786E019
:1038F000F401DE011B9601900D928A95E1F78CE0B0
:10390000898B8A8B6CEB71E0CE0143960E94A62BCB
:10391000D8011B966C91CE0149960E94C200F80115
:103920006485CE014B960E94C200D8011D966C9111
:10393000CE014D960E94C2004EE150E0B701C60193
:103940000E946C13B3E07B121EC082E3898384E083
:103950008A83F80196859B8397859C8390899D83B4
:1039600091899E8396E39F838887828D8987838D43
:103970008A87848D8B87858D8C874CE050E0B701DA
:10398000C6010E946C1387E3898386E08A8391E0F5
:103990009B8393E09C838D838FE08E838AE38F8368
:1039A0008BE388878FEF898749E050E0B701C60134
:1039B0000E946C13C6010E94EA0CA6960FB6F894FA
:1039C000DEBF0FBECDBFDF91CF911F910F91FF9052
:1039D000EF90DF90CF90BF90AF909F908F907F90AF
:1039E00008953F924F925F926F927F928F929F9233
:1039F000AF92BF92CF92DF92EF92FF920F931F93FD
:103A0000CF93DF93CDB7DEB7EA970FB6F894DEBF5A
:103A10000FBECDBF7C012A013B0169010E948A02D1
:103A20004B015C0187010D5B1F4FC8010E942718E5
:103A3000181619069CF00E948A02681979098A09E9
:103A40009B09461657066806790608F466C162E3C4
:103A500070E080E090E00E945802E7CF42E250E040
:103A6000BE016F5F7F4FC8010E949F158981823020
:103A7000D1F0312C832DEA960FB6F894DEBF0FBE3D
:103A8000CDBFDF91CF911F910F91FF90EF90DF900D
:103A9000CF90BF90AF909F908F907F906F905F90EE
:103AA0004F903F900895F80184899589833491055A
:103AB00001F76D817E818F8198850E9492294B014B
:103AC0005C01F60180829182A282B38246E050E0DE
:103AD000B701685F7F4FCE014D960E94892B892BDD
:103AE00041F6F70180819181A281B3818816990600
:103AF000AA06BB0608F4BDCF84819581A681B78153
:103B000088159905AA05BB0508F4B3CF89899A8958
:103B1000AB89BC8986879787A08BB18B4EEC50E030
:103B200070E060E0C8010E949F15312CC7018296A9
:103B300098AB8FA7F701B696FAABE9AB08969CABAA
:103B40008BAB67019AE1C90ED11CBD96FEABEDAB04
:103B5000C701429698AF8FABFD97FAAFE9AF470127
:103B6000FEE18F0E911CF801818D928D18161906B9
:103B70000CF080CFC8010E94BE158333910509F473
:103B8000B2C014F58130910509F464C044F4892B66
:103B900051F3C8010E94BE15AC01552775C0833092
:103BA000910509F462C00697A1F7C8010E94BE15ED
:103BB000B82E44E050E0B401C8010E949F15EB2DDF
:103BC000E450FF0BAF0160C08A33910509F45FC078
:103BD00084F585339105B1F1C697D9F6C8010E94E5
:103BE000BE155C01B601CE0189960E94E0178BA537
:103BF0009CA5ADA5BEA5892B8A2B8B2BB1F0EDA979
:103C0000FEA94080518062807380B601CE01839608
:103C10000E94E0178DA19EA1AFA1B8A5A5014816ED
:103C200059066A067B0609F0B8CF44E050E0B601B9
:103C300018C08B33910509F440C08F3F910509F4FA
:103C400092CFA7CFC8010E94BE15C8010E94BE1521
:103C5000382E89CFC8010E94BE1544E050E06FA9FC
:103C600078ADC8010E949F157ECFC8010E94BE1585
:103C7000B82E44E050E069AD7AADC8010E949F15AE
:103C80008B2D8450990BAC0170E060E0EACFC80145
:103C90000E94BE1544E050E069A97AA9C8010E94BB
:103CA0009F15F70166A177A180A591A50E94922991
:103CB00066A377A380A791A756CFC8010E94BE151F
:103CC00044E050E06BA97CA9C8010E949F15F70150
:103CD00062A573A584A595A50E94922962A773A7E2
:103CE00084A795A740CFC8010E94BE1544E050E0CC
:103CF0006FA578A9C8010E949F15F70162A173A161
:103D000084A195A10E94922962A373A384A395A381
:103D100066A777A780AB91AB26CF33243A94AACE7F
:103D20002F923F924F925F926F927F928F929F92CB
:103D3000AF92BF92CF92DF92EF92FF920F931F93B9
:103D4000CF93DF9300D000D000D0CDB7DEB78C0189
:103D50000E94F6262FEC37E040E050E00E94BD289C
:103D6000DC01CB010196A11DB11DF801848395836F
:103D7000A683B78380839183A283B3835801F3E43E
:103D8000AF0EB11CC5010E94500C64E470E0C50187
:103D90000E94B811882309F445C10E948A022B01B0
:103DA0003C01480182E4880E911C48EEC42E43E099
:103DB000D42EE12CF12C52E0252E1E821D82D4013E
:103DC0008C918330B1F1811166C0F80184819581B5
:103DD000A681B7810196A11DB11D84839583A68319
:103DE000B7830E948A026419750986099709A70199
:103DF00096010E942629A90161E0C8010E94E31BE7
:103E000081E0D4018C938D819E810197C1F20E9443
:103E10008A026419750986099709D801D6962D91E9
:103E20003D914D915C91D99726173707480759075F
:103E300020F6C5010E94500CF80184819581A6816D
:103E4000B7810196A11DB11D84839583A683B78395
:103E50000E948A02F801FE966083718382839383B5
:103E60008D819E8126960FB6F894DEBF0FBECDBF22
:103E7000DF91CF911F910F91FF90EF90DF90CF9046
:103E8000BF90AF909F908F907F906F905F904F907A
:103E90003F902F9008958430F1F4F801848195814A
:103EA000A681B7810196A11DB11D84839583A68348
:103EB000B7830E948A026419750986099709A701C8
:103EC00096010E942629A90163E0C8010E94E31B14
:103ED000D4012C9298CF813051F5F80142AD53AD09
:103EE00064AD75AD9E012F5F3F4FC8010E94F11C6C
:103EF000382EF2E08F1390C089819A81AB81BC810A
:103F0000F80184839583A683B7830E948A0264198B
:103F1000750986099709A70196010E942629A9011A
:103F200063E0C8010E94E31BD4013C926CCF823055
:103F300009F069CFF80142AD53AD64AD75AD9E0196
:103F40002F5F3F4FC8010E94F11C382EF5E08F1300
:103F50005DC0E3E0D401EC93F80182A193A1A4A198
:103F6000B5A1892B8A2B8B2B41F484E893E0A0E048
:103F7000B0E082A393A3A4A3B5A3F80186A197A15F
:103F8000A0A5B1A5892B8A2B8B2B61F482A193A1CB
:103F9000A4A1B5A1B695A7959795879586A397A354
:103FA000A0A7B1A7F80182A593A5A4A5B5A5892BC3
:103FB0008A2B8B2BA9F482A193A1A4A1B5A1AC015A
:103FC000BD0123E076956795579547952A95D1F7DA
:103FD000841B950BA60BB70B82A793A7A4A7B5A725
:103FE000F80186A197A1A0A5B1A586A797A7A0AB28
:103FF000B1AB82A593A5A4A5B5A582AB93ABA4ABA9
:10400000B5AB81E090E09E838D83FDCE96E0891371
:1040100003C0D4011C92F7CEBFEF3B12F4CEF401E3
:104020001082F1CE1E821D821BCF1F93CF93DF9390
:10403000EC01162F0E94A728181739F0612FCE0126
:10404000DF91CF911F910C94AF28DF91CF911F91F9
:1040500008951F920F920FB60F9211242F933F9342
:104060004F935F936F937F938F939F93AF93BF9380
:10407000EF93FF9384E093E00E945801FF91EF914A
:10408000BF91AF919F918F917F916F915F914F9170
:104090003F912F910F900FBE0F901F9018951F9278
:1040A0000F920FB60F9211242F938F939F93EF933C
:1040B000FF93E0911403F09115038081E0911A03BE
:1040C000F0911B0382FD1BC0908180911D038F5FC7
:1040D0008F7320911E03821741F0E0911D03F0E0E1
:1040E000EC5FFC4F958F80931D03FF91EF919F91A3
:1040F0008F912F910F900FBE0F901F901895808178
:10410000F4CF1F920F920FB60F9211242F933F936B
:104110008F939F93AF93BF938091D1029091D202DE
:10412000A091D302B091D4023091D00223E0230FAA
:104130002D3758F50196A11DB11D2093D002809313
:10414000D1029093D202A093D302B093D402809173
:10415000D5029091D602A091D702B091D8020196D3
:10416000A11DB11D8093D5029093D602A093D702D2
:10417000B093D802BF91AF919F918F913F912F91B2
:104180000F900FBE0F901F90189526E8230F0296F0
:10419000A11DB11DD2CFE4E0F3E01382128288EEBC
:1041A00093E0A0E0B0E084839583A683B78384E79F
:1041B00091E09183808385EC90E09587848784ECFF
:1041C00090E09787868780EC90E0918B808B81ECE4
:1041D00090E0938B828B82EC90E0958B848B86ECC5
:1041E00090E0978B868B118E128E138E148EE1EADF
:1041F000F3E086E891E09183808312821382148237
:104200001582E7EAF3E0918380831282138214829D
:104210001582EDEAF3E09183808312821382148287
:104220001582E3EBF3E09183808312821382148280
:104230001582E9EBF3E0918380831282138214826A
:104240001582E5ECF3E0918380831282138214825D
:104250001582EFEBF3E09183808312821382148244
:104260001582EBECF3E09183808312821382148237
:104270001582E1EDF3E09183808312821382148230
:104280001582E9EEF3E09183808312821382148217
:104290001582E3EEF3E09183808380EC828388EAE9
:1042A000838384E6848382ED8583EDEDF3E01382DE
:1042B00012828CE891E09183808380E590E0958381
:1042C000848368EA71E087ED93E00C948317CF93C1
:1042D000DF93CDB7DEB7CD59D1090FB6F894DEBF65
:1042E0000FBECDBF789484B5826084BD84B58160F3
:1042F00084BD85B5826085BD85B5816085BD8091B1
:104300006E00816080936E00109281008091810028
:104310008260809381008091810081608093810020
:10432000809180008160809380008091B1008460E2
:104330008093B1008091B00081608093B000809143
:104340007A00846080937A0080917A008260809302
:104350007A0080917A00816080937A0080917A005F
:10436000806880937A001092C10076E8E72E71E0B1
:10437000F72EFA82E9828091E5039091E603A091FD
:10438000E703B091E8038B839C83AD83BE838E01EA
:104390000F5F1F4FC8010E94440DE0911403F0917C
:1043A000150382E08083E0911003F09111031082E5
:1043B000E0911203F091130380E1808310921C03BB
:1043C000E0911803F091190386E08083E0911603D1
:1043D000F0911703808180618083E0911603F09152
:1043E0001703808188608083E0911603F0911703A2
:1043F000808180688083E0911603F09117038081AB
:104400008F7D80838DED93E00E94DD11C058DF4FDA
:10441000F982E882C058D040CE57DF4F1882198207
:104420001A821B82C258D04080E591E00E94BF00F2
:1044300060E870E06C0F7D1F6E5F7F4F44E050E0DE
:104440008FE090E00E94800BCB57DF4F8881C558EA
:10445000D0401F928F93CC57DF4F8881C458D040F3
:104460001F928F93CD57DF4F8881C358D0401F9242
:104470008F93CE57DF4F8881C258D0401F928F93C1
:1044800083EC91E09F938F931F930F930E94C72B10
:10449000B801CE018E5A9F4F0E9483176FEC71E0D6
:1044A000CE018F599F4F0E948317BE016E5A7F4FD6
:1044B000CE018F599F4F0E9402170E94B208CE0171
:1044C0008F599F4F0E949B08CE018E5A9F4F0E948A
:1044D0009B0880E591E00E94BF0046E050E0BE01ED
:1044E00068587F4F89E090E00E94800B9E01285819
:1044F0003F4F7901690136E0C30ED11C0FB6F89425
:10450000DEBF0FBECDBFCE14DF0481F1F701819174
:104510007F01A3961FAE1EAEA397A5961FAE1EAE3B
:10452000A597A7961FAE1EAEA79740E1BE016E5A93
:104530007F4F90E00E945927BE016E5A7F4FCE01F7
:104540008F599F4F0E943617A7964EAD5FADA79724
:10455000A3966EAD7FADA39787ED93E00E94C01642
:10456000CE018F599F4F0E949B08CDCFE090D7037B
:10457000F090D803E114F10469F0F70180818823F9
:1045800049F0082E000C990B0E94812BF7018193B2
:104590007F01F3CF6CED71E084E093E00E94A3080B
:1045A00087ED93E00E94B20864961FAE1EAE64973A
:1045B00066961FAE1EAE669768961FAE1EAE6897D3
:1045C00067ED73E0CE018E5A9F4F0E946C17B801C1
:1045D000CE018F599F4F0E9483176AEE71E0CE0182
:1045E00080599F4F0E948317BE016F597F4FCE01A4
:1045F00080599F4F0E94021769EF71E00E94EC16EC
:10460000BE016E5A7F4F0E9402176BEF71E00E944D
:10461000EC160E94B208CE0180599F4F0E949B0861
:10462000CE018F599F4F0E949B08CE018E5A9F4FFB
:104630000E949B08F12CE12CC7010E94A728682F3B
:1046400084E093E00E947A01FFEFEF1AFF0A24E171
:10465000E216F10489F769EA71E084E093E00E94D0
:10466000A30865E0F62E8F2D0E94A000F39434E19C
:10467000F312F9CF55E0E52EF12CC7010E94A728CF
:10468000813321F461E08E2D0E94E701C7010E9471
:10469000A728803321F460E08E2D0E94E7018FEF80
:1046A000E81AF80A94E1E916F10439F732E5232E05
:1046B000312C2C0E3D1EEFEF2E1A3E0A42E5C42E81
:1046C000D12CCC0EDD1EFAE0CF0ED11C68EA71E0D1
:1046D000CE018E569F4F0E94831768EA71E0CE018B
:1046E00084579F4F0E94831768EA71E0CE018A5772
:1046F0009F4F0E9483176DED73E0CE018F599F4F3E
:104700000E94F813AE968FADAE97843008F002C3C6
:1047100062E072E084E093E00E945F09CE018F596D
:104720009F4F0E94C8147C01892B81F0CE018F59C4
:104730009F4F0E94E81589831A8241E050E0B8013A
:10474000CE018E569F4F0E94C016E8CF63E172E003
:1047500084E093E00E945F096CE172E084E093E002
:104760000E945F09CE018E569F4F0E94B2086EE1F3
:1047700072E084E093E00E945F0960E272E0C801A9
:104780000E948317B801CE018E569F4F0E94650B81
:104790002C01C8010E949B0862E272E0C8010E94DD
:1047A0008317CA56DF4F88819981C659D0402D8121
:1047B0003E814C01821A930A2115310509F446C045
:1047C000009709F443C08217930708F43FC0881686
:1047D000990620F04C0121E0821A9108CE56DF4F55
:1047E00068807980C259D04089819A81C656DF4F4E
:1047F00099838883CA59D040C301AA24AA94BA2CA9
:10480000F301E80DF91DC456DF4FF983E883CC5955
:10481000D040C456DF4F28813981CC59D040281769
:104820003907B8F0C656DF4F68817981CA59D04040
:104830000E94AD2B009769F09C012619370982165A
:10484000930608F4950101965901E3CFAA24AA948E
:10485000BA2CC8010E949B083FEF43165306B1F0E3
:1048600095012F5F3F4F2F3F320781F0A201BE011C
:104870006E567F4FC8010E949417B801CE0184572D
:104880009F4F0E945F16C8010E949B0864E272E07D
:1048900084E093E00E94A308CE0184579F4F0E94BA
:1048A000B20880E290E00E949F299C01205E3F4F69
:1048B000009711F430E020E065969FAF8EAF6597CA
:1048C00067969FAF8EAF679769963FAF2EAF699798
:1048D0006B963FAF2EAF6B97A1961FAEA197C457B3
:1048E000DF4F28813981CC58D040C057DF4F8881B5
:1048F0009981C059D040820F931F6C961FAE6C9760
:10490000EA963FAE2EAEEA9748E0FE01E858FF4F28
:10491000DE01A059BF4F01900D924A95E1F748E0A2
:10492000FE01E059FF4FD80101900D924A95E1F741
:1049300019863B872A879D878C871F86398A288A14
:104940004AE0B601C8010E94B10961E372E0C60104
:104950000E945A0B892B09F47EC068E372E0C601FD
:104960000E945A0B892B09F476C01A8219821C8284
:104970001B821E821D8267ED73E0C8010E946C17C6
:1049800069EF71E0CE0180589F4F0E948317B801F4
:10499000CE0180589F4F0E9402176BEF71E00E947A
:1049A000EC16BC01CE018E569F4F0E94650B5C0138
:1049B000CE0180589F4F0E949B08C8010E949B080F
:1049C000B7FC49C06FE372E084E093E00E945F09A6
:1049D00061E372E0C6010E945A0BA12C912C009752
:1049E00021F00E94A407A82E992E68E372E0C60168
:1049F0000E945A0BFC01892B09F4B9C094819F775E
:104A0000983009F4A9C040F4992309F4B0C0963055
:104A1000B1F0BB24B39414C09A3009F49DC09C300B
:104A2000C1F7BB24B39420E030E0A901608171811B
:104A3000828193810E948327811102C098C0B08037
:104A40006B2D8A2D0E94E70160E3B11061E38A2D8E
:104A5000992D0E94152061E372E0C6010E945A0B55
:104A6000892B09F086C060E272E0CE018A579F4F21
:104A70000E943617C7010E94A728982EB701C801C7
:104A80000E94401764E872E0CE0180589F4F0E9458
:104A90008317B801CE0180589F4F0E94021769E822
:104AA00072E00E94EC165C01C856DF4F9882C8592C
:104AB000D040C756DF4F1882C959D04041E050E07E
:104AC000BE0168567F4F0E94C016811103C0C50108
:104AD0000E9489086DE872E0C5010E94EC16FC0195
:104AE0004481558160817181CE018A579F4F0E9418
:104AF000C016CE0180589F4F0E949B08C8010E949B
:104B00009B08FFEFEF1AFF0A22E1E216F10409F019
:104B1000B1CFC657DF4F28813981CA58D0402150C4
:104B2000310950E040E0BE016A577F4FC8010E9442
:104B30009417B801CE018A579F4F0E945F16C80193
:104B40000E949B0841E050E062E272E0CE018A5789
:104B50009F4F0E94C0169AC0BB24B394808191815C
:104B6000A281B381892B8A2B8B2B09F069CFB12CC1
:104B700067CF67E672E0C6010E945A0B892B09F4E1
:104B800072CF1A8219821C821B821E821D8267EDDF
:104B900073E0C8010E946C1769EF71E0CE01805884
:104BA0009F4F0E948317B801CE0180589F4F0E94EB
:104BB00002176BEF71E00E94EC16BC01CE018E561D
:104BC0009F4F0E94650B5C01CE0180589F4F0E9451
:104BD0009B08C8010E949B08B7FC5DC06FE372E0B0
:104BE00084E093E00E945F0961E372E0C6010E94E5
:104BF0005A0B009719F00E94A4077C0167E672E047
:104C0000C6010E945A0BC7010E94A728B82EB701FF
:104C1000C8010E9440176EE672E0CE0180589F4F97
:104C20000E948317B801CE0180589F4F0E9402173F
:104C300069E772E00E94EC167C01C856DF4FB8822B
:104C4000C859D040C756DF4F1882C959D04041E0FB
:104C500050E0BE0168567F4F0E94C016811103C00C
:104C6000C7010E94890862E272E0C7010E94EC1647
:104C7000BC01CE018A579F4F0E946C17CE0180580D
:104C80009F4F0E949B08C8010E949B08CE018A5733
:104C90009F4F0E94B2086FE872E0CE018F599F4F7C
:104CA0000E945F096FE972E0CE018F599F4F0E9409
:104CB0005F096EEB72E0CE018F599F4F0E945F0932
:104CC00069EA71E0CE018F599F4F0E94A308C65731
:104CD000DF4F48815981CA58D040CA57DF4F688199
:104CE0007981C658D040CE018F599F4F0E945113F1
:104CF000CE018F599F4F0E94DC12CE018F599F4FDA
:104D00000E94B10C65968EAD9FAD6597009711F02E
:104D10000E943B2ACE018A579F4F0E949B08CE01DA
:104D200084579F4F0E949B08CE018E569F4F0E9432
:104D30009B0880E090E0892B09F4C8CC0E944401D4
:104D4000882309F4C3CC0E940000C0CC87ED93E017
:104D50000C949B088F929F92AF92BF92CF92DF925A
:104D6000EF92FF92CF93DF93EC01688179818A8182
:104D70009B81611571058105910521F464E279ED4E
:104D80008BE597E02DE133EF41E050E00E94BD2834
:104D900049015A019B01AC01A7EAB1E40E94DC2859
:104DA0006B017C01ACEEB4EFA50194010E94EA28EE
:104DB000C60ED71EE81EF91EF7FE06C081E0C81A0F
:104DC000D108E10880E8F80AC882D982EA82FB8229
:104DD000C701B6019F77DF91CF91FF90EF90DF90F1
:104DE000CF90BF90AF909F908F9008958F929F9299
:104DF000AF92BF92CF92DF92EF92FF926091020149
:104E00007091030180910401909105016115710574
:104E10008105910521F464E279ED8BE597E02DE1C0
:104E200033EF41E050E00E94BD2849015A019B0147
:104E3000AC01A7EAB1E40E94DC286B017C01ACEE76
:104E4000B4EFA50194010E94EA28C60ED71EE81E01
:104E5000F91EF7FE06C081E0C81AD108E10880E813
:104E6000F80AC0920201D0920301E0920401F0928C
:104E70000501C701B6019F77FF90EF90DF90CF90BB
:104E8000BF90AF909F908F900895609302017093B0
:104E9000030180930401909305010895BB274A30D4
:104EA00031F4992322F4BDE2909581959F4F0C94A3
:104EB0005A27BB27FB015527AA27880F991FAA1F2E
:104EC000A41710F0A41B83955051B9F7A05DAA3325
:104ED00008F0A95DA193009779F7B111B1931192F0
:104EE000CB010C947327DC01FC01672F71917723B0
:104EF000E1F7329704C07C916D9370836291AE1795
:104F0000BF07C8F308950E94C52708F481E00895FB
:104F1000E89409C097FB3EF4909580957095619553
:104F20007F4F8F4F9F4F9923A9F0F92F96E9BB2709
:104F30009395F695879577956795B795F111F8CF85
:104F4000FAF4BB0F11F460FF1BC06F5F7F4F8F4FF0
:104F50009F4F16C0882311F096E911C0772321F0E6
:104F60009EE8872F762F05C0662371F096E8862F7E
:104F700070E060E02AF09A95660F771F881FDAF7D5
:104F8000880F9695879597F90895990F0008550F02
:104F9000AA0BE0E8FEEF16161706E807F907C0F0BF
:104FA00012161306E407F50798F0621B730B840BC7
:104FB000950B39F40A2661F0232B242B252B21F4A1
:104FC00008950A2609F4A140A6958FEF811D811D41
:104FD00008950E94FC270C946D280E945F2838F0E9
:104FE0000E94662820F0952311F00C9456280C940A
:104FF0005C2811240C94A1280E947E2870F3959FB0
:10500000C1F3950F50E0551F629FF001729FBB27BF
:10501000F00DB11D639FAA27F00DB11DAA1F649F5B
:105020006627B00DA11D661F829F2227B00DA11D0E
:10503000621F739FB00DA11D621F839FA00D611D94
:10504000221F749F3327A00D611D231F849F600DB5
:10505000211D822F762F6A2F11249F5750409AF0DE
:10506000F1F088234AF0EE0FFF1FBB1F661F771F6A
:10507000881F91505040A9F79E3F510580F00C9435
:1050800056280C94A1285F3FE4F3983ED4F386950C
:1050900077956795B795F795E7959F5FC1F7FE2BD5
:1050A000880F911D9695879597F9089597F99F67B1
:1050B00080E870E060E008959FEF80EC08950024A0
:1050C0000A941616170618060906089500240A946D
:1050D00012161306140605060895092E0394000CF3
:1050E00011F4882352F0BB0F40F4BF2B11F460FF82
:1050F00004C06F5F7F4F8F4F9F4F089557FD9058AB
:10510000440F551F59F05F3F71F04795880F97FB8B
:10511000991F61F09F3F79F0879508951216130645
:105120001406551FF2CF4695F1DF08C01616170674
:105130001806991FF1CF86957105610508940895A9
:10514000E894BB2766277727CB0197F90895F9994B
:10515000FECF92BD81BDF89A992780B50895262F7C
:10516000F999FECF1FBA92BD81BD20BD0FB6F8944C
:10517000FA9AF99A0FBE01960895052E97FB1EF430
:1051800000940E94D42857FD07D00E94262907FCCE
:1051900003D04EF40C94D428509540953095219529
:1051A0003F4F4F4F5F4F0895909580957095619553
:1051B0007F4F8F4F9F4F08950E944829A59F900DC4
:1051C000B49F900DA49F800D911D11240895B7FFE9
:1051D0000C94DC280E94DC28821B930B08952F92EC
:1051E0003F924F925F926F927F928F929F92AF9277
:1051F000BF92CF92DF92EF92FF920F931F93CF93C4
:10520000DF93CDB7DEB7CA1BDB0B0FB6F894DEBF5A
:105210000FBECDBF09942A88398848885F846E8480
:105220007D848C849B84AA84B984C884DF80EE80CA
:10523000FD800C811B81AA81B981CE0FD11D0FB6D3
:10524000F894DEBF0FBECDBFED010895A1E21A2E86
:10525000AA1BBB1BFD010DC0AA1FBB1FEE1FFF1F1A
:10526000A217B307E407F50720F0A21BB30BE40B6A
:10527000F50B661F771F881F991F1A9469F76095B1
:105280007095809590959B01AC01BD01CF0108956B
:10529000A29FB001B39FC001A39F700D811D112477
:1052A000911DB29F700D811D1124911D08950E94C2
:1052B0005E296894B1110C94A12808950E94862853
:1052C00088F09F5798F0B92F9927B751B0F0E1F0C7
:1052D000660F771F881F991F1AF0BA95C9F714C077
:1052E000B13091F00E94A028B1E008950C94A0285C
:1052F000672F782F8827B85F39F0B93FCCF38695B0
:1053000077956795B395D9F73EF49095809570950C
:1053100061957F4F8F4F9F4F08950E94C52708F4D6
:105320008FEF089569279627692778278727782799
:105330000895EE0FFF1F0590F491E02D09940F934F
:105340001F93CF93DF938230910510F482E090E0B9
:10535000E091F103F091F20330E020E0B0E0A0E052
:10536000309799F42115310509F44AC0281B390BEF
:1053700024303105D8F58A819B816115710589F149
:10538000FB0193838283FE0111C040815181028120
:10539000138148175907E0F04817590799F41097F7
:1053A00061F012960C93129713961C933296CF01CC
:1053B000DF91CF911F910F9108950093F103109306
:1053C000F203F4CF2115310551F04217530738F09D
:1053D000A901DB019A01BD01DF01F801C1CFEF0195
:1053E000F9CF9093F2038093F103CDCFFE01E20F4A
:1053F000F31F819391932250310939832883D7CFAA
:105400002091EF033091F003232B41F42091080108
:10541000309109013093F0032093EF0320910601AE
:10542000309107012115310541F42DB73EB7409168
:105430000A0150910B01241B350BE091EF03F09111
:10544000F003E217F307A0F42E1B3F0B28173907D0
:1054500078F0AC014E5F5F4F2417350748F04E0FD0
:105460005F1F5093F0034093EF03819391939FCF7D
:10547000F0E0E0E09CCFCF93DF930097E9F0FC01F0
:10548000329713821282A091F103B091F203ED01E1
:1054900030E020E01097A1F420813181820F931F2A
:1054A0002091EF033091F0032817390709F061C00C
:1054B000F093F003E093EF03DF91CF910895EA01B9
:1054C000CE17DF07E8F54A815B819E014115510542
:1054D000B1F7E901FB83EA8349915991C40FD51FC4
:1054E000EC17FD0761F4808191810296840F951F6E
:1054F000E90199838883828193819B838A83F0E089
:10550000E0E012968D919C9113970097B9F52D913B
:105510003C911197CD010296820F931F2091EF03CA
:105520003091F0032817390739F6309751F510926A
:10553000F2031092F103B093F003A093EF03BCCFFA
:10554000D383C28340815181840F951FC817D90727
:1055500061F44E5F5F4F88819981480F591F5183D5
:1055600040838A819B81938382832115310509F0D1
:10557000B0CFF093F203E093F1039ECFFD01DC0185
:10558000C0CF13821282D7CFB0E0A0E0EAECFAE2FB
:105590000C94F1288C01009751F4CB010E949F29B3
:1055A0008C01C801CDB7DEB7E0E10C940D29FC01F8
:1055B000E60FF71F9C0122503109E217F30708F4A8
:1055C0009DC0D901CD91DC911197C617D70798F0EE
:1055D000C530D10530F3CE0104978617970708F33D
:1055E000C61BD70B2297C193D1936D937C93CF01A8
:1055F0000E943B2AD6CF5B01AC1ABD0A4C018C0E2F
:105600009D1EA091F103B091F203512C412CF12C7D
:10561000E12C109731F58091EF039091F0038815FC
:10562000990509F05CC04616570608F058C08091ED
:10563000060190910701009741F48DB79EB7409104
:105640000A0150910B01841B950BE817F90708F02C
:1056500055C0F093F003E093EF03F9017183608389
:10566000A0CF8D919C91119712966C9012971396E2
:105670007C901397A815B90559F56C0142E0C40E4A
:10568000D11CCA14DB0420F1AC014A195B09DA0110
:105690001296159780F06282738251834083D901FC
:1056A0006D937C93E114F10471F0D7011396FC9390
:1056B000EE93129776CF22968C0F9D1FF90191835E
:1056C0008083F301EFCFF093F203E093F10369CF0E
:1056D0004816590608F42C017D01D3019ACFCB015D
:1056E0000E949F297C01009749F0AE01B8010E94F9
:1056F000962BC8010E943B2A870153CF10E000E09F
:1057000050CF9111089581548A5108F4805E855AD2
:105710000895FB01DC0104C08D910190801921F4F2
:1057200041505040C8F7881B990B0895FB01DC01DC
:1057300002C001900D9241505040D8F70895DC010D
:1057400001C06D9341505040E0F70895FB01DC012A
:1057500001900D920020E1F70895FB01519155232E
:10576000A9F0BF01DC014D9145174111E1F759F452
:10577000CD010190002049F04D9140154111C9F330
:10578000FB014111EFCF81E090E001970895AEE079
:10579000B0E0EDECFBE20C94FD280D891E8986E05B
:1057A0008C831A8309838FEF9FE79E838D83AE01DD
:1057B000475E5F4F6F89788DCE0101960E94EA2B7C
:1057C0002F813885020F131FF80110822E96E4E016
:1057D0000C941929ABE0B0E0E0EFFBE20C94EF2869
:1057E0007C013B018A01FC0117821682838181FFC3
:1057F000C8C1CE0101965C01F7019381F30193FDCD
:10580000859193FF81913F01882309F453C185322B
:1058100039F493FD859193FF81913F01853229F4FD
:10582000B70190E00E94DA2DE7CF912C212C312C8A
:10583000FFE1F31538F08B3211F190F4803209F169
:10584000833229F137FC3CC020ED280F2A3050F577
:1058500036FE20C08AE0989E200D1124922E06C0AC
:105860008D3291F0803371F7689430F8F30193FD35
:10587000859193FF81913F018111DACF21C0689416
:1058800031F8689432F8F2CF689433F8EFCF689427
:1058900034F8ECCFEAE02E9E200D1124222E6894DD
:1058A00035F8E4CF8E3229F436FC04C1689436F81A
:1058B000DDCF8C3619F4689437F8D8CF8836B1F23A
:1058C000982F9F7D95549330E0F08336A1F1833774
:1058D000C1F1833509F063C02801F2E04F0E511C7D
:1058E000F801C080D180692D70E036FC02C06FEFF6
:1058F0007FEFC6010E94C42D4C01689437F88201E5
:105900000AC00C5F1F4FFFE3F98388248394912C16
:105910006501E89437F833FE2DC0522C81149104B0
:1059200071F5552009F468CFB70180E290E00E943C
:10593000DA2D5A94F6CFF801808189830E5F1F4FCC
:10594000E4CF2801F2E04F0E511CF801C080D18055
:10595000692D70E036FC02C06FEF7FEFC6010E9438
:10596000CF2D4C018201D5CFB70180E290E00E949B
:10597000DA2D2A942814190409F0B0F7CECFF601D5
:1059800037FC859137FE81916F01B70190E00E944D
:10599000DA2D51105A94F1E08F1A9108BFCF843656
:1059A00019F0893609F077C0F80137FE6BC06081C5
:1059B0007181828193810C5F1F4FF32DFF763F2E03
:1059C00097FF09C090958095709561957F4F8F4F97
:1059D0009F4F689437F82AE030E0A5010E940A2E14
:1059E000C82ECA188C2C432C36FE0CC0E89440F804
:1059F000C91440F434FE05C032FC03C0F32DFE7E12
:105A00004F2E892C44FE95C0FE01EC0DF11D8081C6
:105A1000803309F087C0242D297E422E842D887082
:105A2000582E43FC95C040FE8FC09C2C821418F465
:105A30002C0C922C981844FE91C0B70180E390E0A2
:105A40000E94DA2D42FE09C088E790E041FE02C0C4
:105A500088E590E0B7010E94DA2DC91408F48AC0E5
:105A6000CA94D12C9FEFC91AD90ACA0CDB1CF601C3
:105A700082916F01B70190E00E94DA2DAC14BD0451
:105A8000B1F74FCF60817181072E000C880B990B05
:105A90000E5F1F4F92CFD32CE894D4F82AE030E069
:105AA000853739F1232D297FD22E8F3601F148F425
:105AB0008835A9F0F701868197812B96E2E10C9455
:105AC0000B29803749F08837A9F7D4FE02C06894C3
:105AD000D2F820E130E00DC06894D4F8F6CF34FE5F
